{
  "contractName": "B_lockItInn",
  "abi": [
    {
      "constant": false,
      "inputs": [
        {
          "name": "_title",
          "type": "string"
        },
        {
          "name": "_hash",
          "type": "string"
        }
      ],
      "name": "_setHash",
      "outputs": [],
      "payable": false,
      "stateMutability": "nonpayable",
      "type": "function",
      "signature": "0xd4ca4945"
    },
    {
      "constant": true,
      "inputs": [
        {
          "name": "_title",
          "type": "string"
        }
      ],
      "name": "_getHash",
      "outputs": [
        {
          "name": "",
          "type": "string"
        }
      ],
      "payable": false,
      "stateMutability": "view",
      "type": "function",
      "signature": "0xf88fbe8f"
    }
  ],
  "bytecode": "0x608060405234801561001057600080fd5b50610743806100206000396000f3fe60806040526004361061004c576000357c0100000000000000000000000000000000000000000000000000000000900463ffffffff168063d4ca494514610051578063f88fbe8f146101b0575b600080fd5b34801561005d57600080fd5b506101ae6004803603604081101561007457600080fd5b810190808035906020019064010000000081111561009157600080fd5b8201836020820111156100a357600080fd5b803590602001918460018302840111640100000000831117156100c557600080fd5b91908080601f016020809104026020016040519081016040528093929190818152602001838380828437600081840152601f19601f8201169050808301925050505050505091929192908035906020019064010000000081111561012857600080fd5b82018360208201111561013a57600080fd5b8035906020019184600183028401116401000000008311171561015c57600080fd5b91908080601f016020809104026020016040519081016040528093929190818152602001838380828437600081840152601f19601f8201169050808301925050505050505091929192905050506102f1565b005b3480156101bc57600080fd5b50610276600480360360208110156101d357600080fd5b81019080803590602001906401000000008111156101f057600080fd5b82018360208201111561020257600080fd5b8035906020019184600183028401116401000000008311171561022457600080fd5b91908080601f016020809104026020016040519081016040528093929190818152602001838380828437600081840152601f19601f820116905080830192505050505050509192919290505050610392565b6040518080602001828103825283818151815260200191508051906020019080838360005b838110156102b657808201518184015260208101905061029b565b50505050905090810190601f1680156102e35780820380516001836020036101000a031916815260200191505b509250505060405180910390f35b60606102fc336104bb565b9050606061030a84836105a6565b9050826001826040518082805190602001908083835b6020831015156103455780518252602082019150602081019050602083039250610320565b6001836020036101000a0380198251168184511680821785525050505050509050019150509081526020016040518091039020908051906020019061038b929190610672565b5050505050565b60608061039e336104bb565b905060606103ac84836105a6565b90506001816040518082805190602001908083835b6020831015156103e657805182526020820191506020810190506020830392506103c1565b6001836020036101000a03801982511681845116808217855250505050505090500191505090815260200160405180910390208054600181600116156101000203166002900480601f0160208091040260200160405190810160405280929190818152602001828054600181600116156101000203166002900480156104ad5780601f10610482576101008083540402835291602001916104ad565b820191906000526020600020905b81548152906001019060200180831161049057829003601f168201915b505050505092505050919050565b60608060146040519080825280601f01601f1916602001820160405280156104f25781602001600182028038833980820191505090505b50905060008090505b601481101561059c578060130360080260020a8473ffffffffffffffffffffffffffffffffffffffff1681151561052e57fe5b047f010000000000000000000000000000000000000000000000000000000000000002828281518110151561055f57fe5b9060200101907effffffffffffffffffffffffffffffffffffffffffffffffffffffffffffff1916908160001a90535080806001019150506104fb565b5080915050919050565b606082826040516020018083805190602001908083835b6020831015156105e257805182526020820191506020810190506020830392506105bd565b6001836020036101000a03801982511681845116808217855250505050505090500182805190602001908083835b6020831015156106355780518252602082019150602081019050602083039250610610565b6001836020036101000a03801982511681845116808217855250505050505090500192505050604051602081830303815290604052905092915050565b828054600181600116156101000203166002900490600052602060002090601f016020900481019282601f106106b357805160ff19168380011785556106e1565b828001600101855582156106e1579182015b828111156106e05782518255916020019190600101906106c5565b5b5090506106ee91906106f2565b5090565b61071491905b808211156107105760008160009055506001016106f8565b5090565b9056fea165627a7a723058205efb7739dc58093c5628c31461a5f15c4c99daf43d05f2ee22384a961098ad820029",
  "source": "pragma solidity 0.5.0;\r\n\r\ncontract B_lockItInn{\r\n\r\n    //contract\r\n    //string[] public title;\r\n    mapping(string => address) Owner;\r\n    mapping(string => string) Hashes;\r\n\r\n    function toString(address x) private pure returns (string memory) {\r\n        bytes memory b = new bytes(20);\r\n        for (uint i = 0; i < 20; i++)\r\n            b[i] = byte(uint8(uint(x) / (2**(8*(19 - i)))));\r\n        return string(b);\r\n    }\r\n\r\n    function append(string memory a, string memory b) private pure returns (string memory) {\r\n\r\n        return string(abi.encodePacked(a, b));\r\n\r\n    }\r\n\r\n    function _setHash(string memory _title, string memory _hash) public{\r\n        string memory add = toString(msg.sender);\r\n        string memory hash_title = append(_title, add);\r\n        Hashes[hash_title] = _hash;\r\n    }\r\n\r\n    function _getHash(string memory _title) public view returns(string memory){\r\n        string memory add = toString(msg.sender);\r\n        string memory hash_title = append(_title, add);\r\n        return Hashes[hash_title];\r\n    }\r\n}",
  "sourcePath": "C:/Documents/GitHub/B_lockItInn2/src/contracts/B_lockItInn.sol",
  "compiler": {
    "name": "solc",
    "version": "0.5.0+commit.1d4f565a.Emscripten.clang"
  },
  "schemaVersion": "3.0.2",
  "updatedAt": "2019-10-09T08:41:38.716Z",
  "devdoc": {
    "methods": {}
  },
  "userdoc": {
    "methods": {}
  }
}